:020000040000fa
:080000000002040000000000f2
:020000040000fa
:10000800d6020000d6020000d6020000d602000088
:10001800d6020000d6020000d6020000d602000078
:10002800d6020000d6020000d60200006e2b0000a7
:10003800d6020000d6020000d6020000d602000058
:10004800d6020000d6020000d6020000d602000048
:10005800d6020000d6020000d6020000d602000038
:10006800d60200005e120000d6020000d602000090
:10007800d6020000d6020000d6020000d602000018
:10008800d6020000d6020000d6020000d602000008
:10009800d6020000d6020000d6020000d6020000f8
:1000a800d6020000d6020000d6020000d6020000e8
:1000b800d6020000d6020000d6020000d6020000d8
:1000c800d6020000d6020000d6020000d6020000c8
:1000d800d6020000d6020000d6020000d6020000b8
:1000e800d6020000d6020000d6020000d6020000a8
:1000f800d6020000d6020000d6020000d602000098
:10010800d6020000d6020000d6020000d602000087
:10011800d6020000d6020000d6020000d602000077
:10012800d6020000d6020000d6020000d602000067
:10013800d6020000d6020000d6020000d602000057
:10014800d6020000d6020000d6020000d602000047
:10015800d6020000d6020000d6020000d602000037
:10016800d6020000d6020000d6020000d602000027
:10017800d6020000d6020000d6020000d602000017
:10018800d6020000d6020000d6020000d602000007
:10019800d6020000d6020000d6020000d6020000f7
:1001a800d6020000d6020000d6020000d6020000e7
:1001b800d6020000d6020000d6020000d6020000d7
:1001c800d6020000d6020000d6020000d6020000c7
:1001d800d6020000d6020000d6020000d6020000b7
:1001e800d6020000d6020000d6020000d6020000a7
:0801f800d6020000d60200004f
:020000040000fa
:10020800d6020000d6020000d6020000d602000086
:10021800d6020000d6020000d6020000d602000076
:10022800d6020000d6020000d60200006e2b0000a5
:10023800d6020000d6020000d6020000d602000056
:10024800d6020000d6020000d6020000d602000046
:10025800d6020000d6020000d6020000d602000036
:10026800d60200005e120000d6020000d60200008e
:10027800d6020000d6020000d6020000d602000016
:10028800d6020000d6020000d6020000d602000006
:10029800d6020000d6020000d6020000d6020000f6
:1002a800d6020000d6020000d6020000d6020000e6
:1002b800d6020000d6020000d6020000d6020000d6
:1002c800d6020000d6020000d6020000d6020000c6
:1002d800d6020000d6020000d6020000d6020000b6
:1002e800d6020000d6020000d6020000d6020000a6
:1002f800d6020000d6020000d6020000d602000096
:10030800d6020000d6020000d6020000d602000085
:10031800d6020000d6020000d6020000d602000075
:10032800d6020000d6020000d6020000d602000065
:10033800d6020000d6020000d6020000d602000055
:10034800d6020000d6020000d6020000d602000045
:10035800d6020000d6020000d6020000d602000035
:10036800d6020000d6020000d6020000d602000025
:10037800d6020000d6020000d6020000d602000015
:10038800d6020000d6020000d6020000d602000005
:10039800d6020000d6020000d6020000d6020000f5
:1003a800d6020000d6020000d6020000d6020000e5
:1003b800d6020000d6020000d6020000d6020000d5
:1003c800d6020000d6020000d6020000d6020000c5
:1003d800d6020000d6020000d6020000d6020000b5
:1003e800d6020000d6020000d6020000d6020000a5
:0803f800d6020000d60200004d
:020000040000fa
:10040000efea20000e7f22000e01880000000000ad
:10041000000020000000e000020032000001200087
:10042000200288000c00070020a322000100200009
:100430000f000700000020000000e0000200320072
:100440000000020000000000ac29020000000000d3
:100450000040da000000fe00002520000000e0005f
:1004600002003200002020009001880000000600f9
:10047000a1028800800078000000eb001a0037001d
:10048000e280400054a0b4009101ba00e280400034
:1004900054a0b4009102ba00e280400054a0b4001d
:1004a0000002eb00472bde00f507b200a601880032
:1004b000602ce10008003a000049eb000201e8006e
:1004c000020039003420ec0002f0a0008301e900b2
:1004d000f9ff3e00040037006128e100010032000e
:1004e0000082eb00040007001101ba000200e000e6
:1004f000e3ff3a000000060004d0a300e20f490029
:100500001c003900810278003549ba000201e80078
:10051000020039003420ec0002f0a0008301e90061
:100520000f0032002549ba000201e800020039003c
:100530003420ec0002f0a0008301e9000800320042
:100540000400e0000600320015c9ba000201e8000c
:10055000020039003420ec0002f0a0008301e90021
:100560008180e80054a0b4000300e000e2ff3a00fc
:10057000000006009102ba00055978008301e900e5
:10058000f7ff3200c82ade00055978008301e90030
:10059000f3ff32000400e000f1ff320011d9ba008d
:1005a000eeff3700da050400000000000040da002a
:1005b0000000fe0003f0a200889fbe008a9fbe00dc
:1005c0008c1f7800f3000700fa0033006450e1004c
:1005d0004f0032006420e1005200320003826c00c0
:1005e00007003b000905d0000306d000820f54002d
:1005f0000c065d000200390002003200890178001b
:10060000030678008582550004003d000003fd00cc
:100610008103fd008502ea008b854200840f720091
:1006200002003b0060001000e08018006011b8007c
:100630000005eb007a28e1000a0039000600780086
:10064000c75ddd00f707b200878075002d00370019
:10065000828171000a017800610560008180d1000b
:100660000080d3008502e900f9ff3b00060440004a
:100670008784480002003b0060041400e0841c00f2
:100680000988a300070032008a817100828171000d
:10069000610164008904d1000884d3008b05e8005f
:1006a000170037000978a30013003a000b00e000a0
:1006b000130034008b05e9000804440089844c00d1
:1006c0000a4474000978a3000d003a000b00e00012
:1006d000070034008b05e9000804440089844c00bd
:1006e00001003a000b0020000978a300f7ff320058
:1006f0000001eb0002003700828171000a017800de
:10070000690007000cf0a70001f0a000b20037005c
:100710006420e10002003a00838f6c00b2003300d5
:100720000801be000200be00ab003700889fbe007b
:100730008a9fbe008c1f7800960007009d00330042
:1007400003866c006450e1002e0032006420e1005a
:10075000330032006150e1002f0032006120e100df
:100760003100320085855500eb07b00009002000fc
:1007700008042000050037000804440089844c0068
:100780000a0031000603430087834b000001530039
:1007900081815b00f8ff33000203be000800a00067
:1007a0000804440089844c00f6ff3900c639dd0096
:1007b0008301730001003200130020008904d1007e
:1007c0000884d3000998a300050032000800a700a0
:1007d0000300a0008904d1000884d3008b05e80041
:1007e0008904d1000884d3000001eb000281d2000b
:1007f0002d00070001f0a1000cf0a70001f0a000ff
:10080000750037006420e100770032000801be0067
:100810000200be00f7ff37006120e10072003200e5
:100820006000b800f3ff37000000200001f8270047
:10083000f0ff37000001be00410007000470a70070
:1008400003f0a10003f8a30013003a006509b1000a
:1008500010003200090035006928e100020035006f
:1008600001002800000005000000400081804800d1
:100870008502e900fcff3a0000000600f88f420004
:10088000050035008100d1000080d3008502e8001a
:10089000fcff3a00000006008000eb0000000500ad
:1008a0006011b8008700370081002000618055008a
:1008b0000b003d000b00200061fe2f000100e10055
:1008c0001d00340082817100610164008904d1003f
:1008d0000884d3000000e800faff3a00710020000d
:1008e0006100640003007000020060000900320033
:1008f00061044400e0844c000988a5000500320032
:100900008b05e8006808e10002003a008904d10084
:100910000884d300f20f20000258e10005003d00da
:10092000c75ddd00f907b200898075000800780016
:10093000000006000bf827008b007800000005007f
:10094000c70ade00f107b200f50fb200080032005e
:10095000e1cf4200020032000170a0002400050037
:10096000810f7000010032000408050044000500fa
:10097000810f700002003a00140005008502e900b2
:100980000000400081c04800fcff3b000170a00057
:10099000240005000004be00e9ff07000003be00bc
:1009a0000405be000200be00e5ff0700844f75008d
:1009b000000006000200be006450e10005003600a1
:1009c0006420e100020036000968a30001003a003b
:1009d0000800be000160a0004f0678004f05be0071
:1009e0004f04be0000000600f0ff2f00f1ff2700bb
:1009f000f9ff3700889fbe008a9fbe008c1f7800d9
:100a0000e4ff0700ebff330003866c006450e10055
:100a1000240032006420e100270032006150e10030
:100a2000220032006120e100210032008b8542006b
:100a3000eb07b1000134b800003ab80008044200e6
:100a400089844a00013ab8000030b800888040002c
:100a500009014a0004003300000040008180480082
:100a6000020149008b05e900c909dd00830170001e
:100a70000100320013002000c814de004814dd001d
:100a80004709de001200b200c808de0008847000ca
:100a900085ff070001f0a1000cf0a70001f0a00005
:100aa000cdff37006120e100cfff32000801be001a
:100ab0000200be00f7ff37006150e100fcff3a0082
:100ac000c9ff3700889fbe008a9fbe000082700069
:100ad0000402710004827100260032000004be008e
:100ae0000200be006011b8006b09200095022000d2
:100af0000182cf000a0039000541b1000082cf0019
:100b0000070039000541b1000982cf000400390017
:100b10000541b1000882cf00010039000541b10054
:100b200005425200120032000a003b00828171002f
:100b3000610164008100d1000080d3008984d3006a
:100b40000884d3008b05e8000442e800f7ff3a0070
:100b5000070037000804440089844c000000480066
:100b6000818048008b05e9000442e900f9ff3a0062
:100b70004dff07004f05be004f04be0000000600f9
:100b80008001780002003700815978000201e900f5
:100b90000200e000fcff3a00000006008000780040
:100ba000010178003104e000fdff3a00000051002f
:100bb00000000600881f7800020478000801780011
:100bc000cc010700080040004f0478000000060038
:100bd0000000fa00881f780000047800ea815700be
:100be0003fb9970088007800a05d2000070007004b
:100bf0000000e000020035008040eb000174780046
:100c00004f0478000080fa00000006006200fa003d
:100c1000889fbe008a1f7800000578008104780054
:100c2000020478008300780080f92f000f00400054
:100c3000ae0307009a979f00a9979f000000eb0062
:100c4000b09f9f001885fb008a04fb000a05ea009c
:100c50004f55de0050022000808f54000d003200fe
:100c6000e10f55000b003a000a0178008800780077
:100c70002f9097009f91970003000100a0979f007d
:100c80000000e0008e0032003f9897000000e8006e
:100c9000b09f9f000a04440050022000808f54003f
:100ca000040032000900e000e6ff3a003f98970098
:100cb000840037000000eb00909f9f00809f9f0002
:100cc000f0979f00e0979f00d0979f00c0979f00ec
:100cd00007003700e1e7200001005000000040005d
:100ce00021e7200061007800df9897000100700084
:100cf000d09f9f0088047800090478003845780068
:100d00008a00fb00e0e72000810107000000e0000e
:100d1000f0ff3a00a1c2b300814f55000e003a0027
:100d2000cf8897000180e900c08f9f0010007800f5
:100d3000c09f9f000000e00005003d000000ea00a9
:100d4000c09f9f005f9897000020a000d09f9f0049
:100d50000904e8000f003700c09f9f000000eb006f
:100d600005003700f2ff2700820f5000020032001a
:100d70006a01b90002804000090478008804780004
:100d8000b900fb000103b100e98f5000f5ff360008
:100d9000c09f9f00e0c2b300984f100002003200d5
:100da0000080eb0019003700a0c2b300d84f10003c
:100db00007003a00cf8897000180e900c08f9f00ac
:100dc00010007800a09f9f000804e8001000370082
:100dd0000000eb00a09f9f0088007800050037000e
:100de000f3ff2700830f5000020032006a02b900af
:100df0000400410001047800880078003101fb0004
:100e00000203b100e90f5100f5ff3600a09f9f00db
:100e1000984478008900fb00a0e620003c01070010
:100e20000000e000020032000804e8000100370082
:100e30008044eb00c97f9f0080c6b30080cf540080
:100e400004003a0098cf14000a003a0066405000af
:100e500006003700c0c6b30080cf540005003a003a
:100e600098cf140003003a0065404000c07f9f0007
:100e70000804e8001801fb00e3fb2f008f8141000c
:100e800081f92f008f804000a0f92f000f00400053
:100e9000100007000000e00009003a00e1fb2f000d
:100ea0008f804000a0f92f000f0040005302070080
:100eb0000000e000020035000804e80061ff370090
:100ec0000080eb004f0578004f04be000080fa0060
:100ed00000000600881f7800e4c6b300844f51006c
:100ee000b600320010003c006b425200844f5100ab
:100ef0001800320005003c0054c2b300844f51007a
:100f0000ee00320084c5b3000f00370044c6b300c2
:100f1000844f51001400320065424200844f51005a
:100f2000e9003a001000370004c7b300844f5100b5
:100f3000d50032005300350065424200844f510015
:100f40005000320063424200844f5100de003a00fc
:100f50004c0037001181e90082087800f000900011
:100f600012417800d600370020629000c5c6b30059
:100f7000854f520007003a009102780064825200c7
:100f8000840878001402be004fabde0086037800b0
:100f90001100370015c7b300854f5200030032001f
:100fa000a5c6b300854f520006003a0091027800b2
:100fb00068825200840878005403be004402be00d8
:100fc000050037001182e9008408780014027800d7
:100fd000cfa2de00612bb9000498be000690be00cf
:100fe000a060900088c6b30088cf50000d0032008a
:100ff00028c6b30088cf500004003a000402fb006a
:10100000cfa2de00612bb9000800370048c7b3004b
:1010100088cf5000030032006644440088cf50005f
:1010200004003a00cfa2de00612bb9000498be0094
:101030000690be003002be002003be00f00090000b
:10104000e00f5200e08f5a00e00f5b00e08f5b0082
:1010500002003d00d4c2b300080037000012900027
:101060000418a30002003200b4c2b300030037002a
:101070000408a3004c00320004c2b30084f17800dd
:101080004700370020629000c5c6b300854f52006c
:1010900006003a00910278006482520084087800c9
:1010a0001402be006033b8001100370015c7b3004a
:1010b000854f520003003200a5c6b300854f520091
:1010c00006003a0091027800688252008408780095
:1010d0005403be004402be00050037001182e9003f
:1010e00084087800140278008002eb006033b800b6
:1010f0000498be000690be00a060900088c6b300b1
:1011000088cf50000d00320028c6b30088cf5000b1
:1011100004003a000482fb008002eb006033b80058
:101120000800370048c7b30088cf500003003200e2
:101130006644440088cf500004003a008002eb006f
:101140006033b8000498be000690be008010900086
:101150000138a300140032003002be002003be009c
:10116000e00f5200e08f5a00e00f5b00e08f5b0061
:101170000d00320081c7b300814f510003003200df
:1011800081c5b300814f510007003a00f000900084
:1011900004c3b30084f178008100e80082f1780094
:1011a0008100e80071009800f0009000818141000a
:1011b00063009800824078003e003700a0619000f4
:1011c000c4c6b3001181e90084cf5100220032006f
:1011d0000a003c006442520084cf510025003200d6
:1011e00004c2e80084cf510013003200684252006c
:1011f00084cf51001e003a000a00370044c7b300f4
:1012000084cf51001b0032006642420084cf51005f
:10121000180032006942520084cf510014003a0095
:10122000050037008208780092007800405890004e
:10123000804878002c0037008208780092007800ff
:10124000600a9000cfa2de00612bb9008498be0036
:101250008690be0024003700820878009200780053
:1012600060099000cf91de008288be001e0037002a
:101270001181e900820878009200780060089000ef
:1012800080087800180037001181e9008208780092
:1012900012027800cfa2de00612bb9000498be00d4
:1012a0000690be00f000900081814100630098002c
:1012b00081c7b300220007000b003700f000900048
:1012c00082f1780006003700f00090008181410033
:1012d0000204e00001003a0052c2b30082497800e3
:1012e0008100e800710098000000eb004f047800d6
:1012f000000006008001780002003700b159780034
:101300000201e9000200e000fcff3a0000000600d4
:10131000020037000304e0000600320000017800fc
:1013200002007800b041780081cf5100f9ff3a0007
:10133000010037000001eb00020078000000060009
:10134000fc874700889fbe008a9fbe008c9fbe001e
:101350008e1f78000006780080c5b30080cf500053
:101360000a0032007740400080cf50000a0032006f
:101370006940400080cf50000b00320090e5200013
:1013800080bf9f00ae0020000a00370082e42000ea
:1013900082bf9f000600370093e5200083bf9f00b7
:1013a0008e0020000300370094e5200084bf9f00da
:1013b0000e0120003c02be002c03be000605be004c
:1013c0000404be0040c6b30080cf500003003200ca
:1013d0006540400080cf50000b003a00e00f520003
:1013e000e08f5a00e00f5b00e08f5b0006003d00dd
:1013f0006000b8006011b8000404500085845800f3
:101400000605590087855900e80f5700040032008f
:1014100040002000f00f570038003a00010037006c
:1014200030002000e00f5400e08f5c00e00f5d0012
:10143000e08f5d0004003a00dc0890008d01200080
:101440000100e000060032008e00e90088806000a4
:101450008fba9700e5c07800f1ef9f007d01200072
:10146000800078008100e900050033008b05d10081
:101470000a85d3008984d3000884d300f9ff37009c
:10148000089ebe000a96be00120037008d06e900d5
:101490008e00e900848060000fb99700e2c17800f7
:1014a00082fd2f000f01410003f17e0080007800d3
:1014b0008100e900050033008783d1000683d30053
:1014c0008582d3000482d300f9ff3700049ebe005a
:1014d0000696be003c02be002c03be00e00f520088
:1014e000e08f5a00e00f5b00e08f5b008b00340060
:1014f0000d00e000e5ff3c00880037002c60900004
:1015000081c6b300814f50000b00320006003c0042
:101510000004e00008003200e6c05000814f500097
:101520004e003a0004003700c1c6b300814f50009e
:101530004a003a00210037000800e00004003a00a9
:101540005c0890008d0120000000e00006003200e1
:10155000110009000e84d8000fb99700e2c078008e
:10156000f1ef9f007d012000110009000e84d800da
:101570000a003700110009000e04d8008d06e900aa
:101580000e81b900020454008fb8970061417c00bd
:1015900081fd2f008f80400082f07e0000047800e3
:1015a0000800e000020032000d00e000f1ff3c0006
:1015b000cfc4de00614db90025003700e00f5400b4
:1015c000e08f5c0004003a005c0890008d01200070
:1015d0000000e000070032006171b9000800be00a1
:1015e000630107008fb99700e3417800f3ef9f0094
:1015f0007d0120006171b9000800be004c010700a8
:101600000b0037006171b9000800be003901070006
:101610008d06e90000f1b900020454000fba9700ea
:10162000e4427c0084fd2f000f02420005f27e00a0
:101630000004be00e00f5000e08f580002003200ae
:101640000d00e000efff3c004fcdde008a05780082
:10165000089ebe000a96be0030003700e00f54001e
:10166000e08f5c00e00f5d00e08f5d0004003a0059
:101670005c0890008d0120000000e00009003200ad
:101680006172b900612bb9000800be000a01be00fa
:10169000da0107000fba970064427800f4ef9f0068
:1016a0007d0120006172b900612bb9000800be0005
:1016b0000a01be00ca0107000d0037006172b900bf
:1016c000612bb9000800be000a01be00cf0107006f
:1016d0008d06e90000f2b900040454008fba9700a7
:1016e00065427c0085fd2f008f82420084f27e00df
:1016f000009ebe000296be003c04be002c05be004b
:10170000e00f5400e08f5c00e00f5d00e08f5d00b3
:10171000020034000d00e000e8ff3c00e80f570035
:1017200010003a000c1090000038a3000d003200a9
:10173000f78f560006003e0085fd2f008f82420085
:10174000e5c07e0000c3b30080cf5000050032002a
:101750008d06e90002c3b30081fd2f008f80400099
:1017600082f07e0078811600120e98006c009000c6
:1017700083fd2f008f8141008d804100ddfe070039
:101780001c089000dc089000810f500006003d000e
:1017900000805000000e98000c1090000040a10046
:1017a000001698000f0037000100e0000d003d001a
:1017b0008c109000f4806000f08f500009003a0017
:1017c0007c099000fc009000810051000c09900001
:1017d00082805000008050004240a9000100340087
:1017e000000e98004f0778004f06be004f05be0060
:1017f0004f04be00cf01b100000006000400fa0053
:10180000889fbe008a9fbe008c1f7800000478006d
:1018100001067800f80d9000780090008085550052
:1018200008089000808555001808900080855500b4
:101830002808900080855500380890008085550064
:1018400048089000808555000002220090bf9f004c
:1018500000032300a0bf9f00081090000028a300f1
:1018600015003a000b00e000130034000b0578006f
:101870008a047800e20f550001003600290020009c
:10188000c801900009017800ee80570058009000d0
:1018900003000100500498000000e0008c003200ba
:1018a0006808900009004000600c98000905550088
:1018b0004240a900eeff3c00780190000200e000e9
:1018c0000c003400c80190008c0078005800900093
:1018d00003000100500498008080eb000000e0004d
:1018e0007c003200e8089000780090000080400002
:1018f000600c9800880c90000900e0001100340092
:1019000009057800e28f5400010036002a0020000b
:10191000c80190000a017800ec8057005800900040
:1019200003000100500498000000e000680032004d
:10193000680890000a004000600c98008a845400f7
:10194000edff3700180990000200e0000c003400a1
:10195000c8019000e80090005800900003000100ca
:10196000500498008080eb000000e0005900320035
:10197000e80890001808900000804000600c980073
:10198000a80c90000900e00011003400090578005f
:10199000e28f5400010036002a002000c8019000a8
:1019a0000a017800ec805700580090000300010005
:1019b000500498000000e0004500320068089000e4
:1019c0000a004000600c98008a845400edff370044
:1019d000380990000200e0000e003400e80090009a
:1019e0001808900080804000c801900058009000c6
:1019f00003000100500498008080eb000000e0002c
:101a000034003200e8089000380890000080400060
:101a1000600c9800c80c90000900e0001100340030
:101a200009057800e28f5400010036002a002000ea
:101a3000c80190000a017800ec805700580090001f
:101a400003000100500498000000e0002000320074
:101a5000680890000a004000600c98008a845400d6
:101a6000edff3700081090008000eb000028a30075
:101a7000180032000b00e000160034008b047800e0
:101a800009057800e28f5400010036002a0020008a
:101a9000c80190000a017800ee80570058009000bd
:101aa00003000100500498000000e000080032002c
:101ab000680890000a004000600c98008a84540076
:101ac0004240a900eeff3c008000eb00010037001f
:101ad0008080eb00010078004f0678004f05be00c3
:101ae0004f04be000080fa000000060001087800e4
:101af00000000600839f68000100e00002003d0036
:101b000060001000e08018000300e00002003d00cb
:101b100060011100e0811900050007004f00e0009e
:101b200002003b0060001000e0801800000006008a
:101b30006022b800060220000000d0008180d200a0
:101b40000482d2008582d2000000a000020252006e
:101b500083825a00030031000202420083824a005d
:101b60000000a1000603e900f3ff3a0000000600b0
:101b7000efff07000400be0000000600889fbe00c3
:101b80008a9fbe0030044200b0844a0030054b00fa
:101b900090854b006000b1000898be000a90be001e
:101ba0000440e10005c8e10006d0e10007d8e100eb
:101bb00002003100680040001008e8004f05be0038
:101bc0004f04be0000000600889fbe008a9fbe0032
:101bd0003004be002005be000418540005985c00c7
:101be00006185d0007985d00110020000440e10028
:101bf00005c8e10006d0e10007d8e1000100390086
:101c00008000eb00108810004f05be004f04be009e
:101c1000000006001200fa00889fbe008a9fbe00e6
:101c20008c9fbe00e0b79f00f1b79f0082bf9f006e
:101c300093bf9f000605be000404be000000eb0039
:101c4000d0b79f00c0b79f00b0b79f00a0b79f005c
:101c500090b79f000006eb005fb19700cfb09700f0
:101c6000820141003fb097000200e00004003d0007
:101c7000370007007e805700c0ff070003003700d1
:101c8000330007007e805700cfff0700dfb69700c4
:101c90000d00e0000c0035006fb29700ffb2970016
:101ca0000fbb97009fbb9700100020000100200091
:101cb0006011b8000002720081827200020373009a
:101cc000838373001b0007000c06e800010420005a
:101cd000810f5600e0ff3a000d00e00004003d00d7
:101ce0000802be000a03be007e805700a3ff070063
:101cf0005fa897000000e00005003a001fb29700bf
:101d0000afb297003fb39700cfb397000900070029
:101d10006fb09700ffb097000fb997009fb9970079
:101d20004f06be004f05be004f04be000080fa0003
:101d3000000006000100070000000600a4b79f0095
:101d4000b5b79f00c6b79f00d7b79f000000060039
:101d50004f09de0082817100b3b79f004f01de00a2
:101d60008180400082807000a1b79f008fb09700f3
:101d70004f09de00000040000200700090b79f0095
:101d80007fa897004f01de008180400082807000b4
:101d900081b79f000d0007004f3ade0000004000b1
:101da00004007000f0af9f0008000700040242002a
:101db00085824a0006034b0087834b00dfff070044
:101dc0000802be000a03be00000006002fb2970002
:101dd000bfb297004fb39700dfb397000000060033
:101de000881f780018002000881f780089ff0700ee
:101df0008f87e9004f04780000000600801feb0089
:101e000084ff07008f87e90000000600889fbe005e
:101e10008a9fbe00e00f5000e08f5800e00f59008d
:101e2000e08f59000c003d006044b8006055b800d8
:101e30000000540081805c0002015d0083815d0030
:101e4000180020001500070008003d0018000700da
:101e50000004eb00050037000004eb000f00070052
:101e600002003d001200070018002000dcff070000
:101e70000800e000060032006022b8006033b800bd
:101e80000000520081805a0002015b0083815b00e8
:101e90004f05be004f04be0000000600e00f5200d8
:101ea000e08f5a00e00f5b00e08f5b00000006004f
:101eb0006044b8006055b8000402540085825c009c
:101ec00006035d0087835d0000000600889fbe005a
:101ed0008a9fbe008c1f7800e00f5000e08f5800f2
:101ee000e00f5900e08f59000d003d006044b8003c
:101ef0006055b8000000540081805c0002015d0064
:101f000083815d001c0020000820e10009a8e10099
:101f10000ab0e1000bb8e1000d003d0008003700f9
:101f20000006eb00e00f5200e08f5a00e00f5b006c
:101f3000e08f5b0006003d006044b8006055b800cb
:101f40000402540085825c0006035d0087835d0007
:101f5000aaff07000c00e000060032006022b80073
:101f60006033b8000000520081805a0002015b001b
:101f700083815b004f0678004f05be004f04be0012
:041f80000000060057
:020000040000fa
:101f8400000000000000000000000000004f0000fe
:101f9400000000000007000000070000001400001b
:101fa4007f1400007f140000242a00007f2a000010
:101fb4001223000013080000646200003649000088
:101fc400552200005000000005030000000000003e
:101fd400001c00002241000000000000412200001b
:101fe4001c000000140800003e0800001408000053
:101ff400083e000008080000005000003000000007
:102004000008000008080000080800000060000044
:10201400600000000020000010080000040200001e
:102024003e510000494500003e000000427f000090
:1020340040000000426100005149000046210000b8
:10204400414500004b31000018140000127f0000cd
:102054001027000045450000453900003c4a0000b7
:102064004949000030010000710900000503000027
:10207400364900004949000036060000494900007d
:10208400291e000000360000360000000000000099
:102094005636000000000000081400002241000031
:1020a4000014000014140000141400000041000087
:1020b400221400000802000001510000090600007b
:1020c40032490000794100003e7e000011110000f9
:1020d400117e00007f49000049490000363e00009f
:1020e40041410000412200007f41000041220000e4
:1020f4001c7f000049490000494100007f0900009d
:1021040009090000013e000041490000497a00002d
:102114007f080000080800007f000000417f0000e5
:102124004100000020400000413f0000017f00000a
:1021340008140000224100007f40000040400000dd
:10214400407f0000020c0000027f00007f040000ba
:10215400081000007f3e000041410000413e0000a5
:102164007f09000009090000063e000041510000fb
:10217400215e00007f090000192900004646000086
:102184004949000049310000010100007f010000bd
:10219400013f000040400000403f00001f200000bd
:1021a400402000001f3f000040380000403f000076
:1021b40063140000081400006307000008700000a6
:1021c4000807000061510000494500004300000079
:1021d4007f410000410000000204000008100000dc
:1021e40020000000414100007f00000004020000c4
:1021f4000102000004400000404000004040000094
:1022040000010000020400000020000054540000fb
:10221400547800007f48000044440000383800002f
:1022240044440000442000003844000044480000b6
:102234007f3800005454000054180000087e000049
:1022440009010000020c000052520000523e00003e
:102254007f0800000404000078000000447d0000b2
:102264004000000020400000443d0000007f0000ca
:102274001028000044000000004100007f400000de
:10228400007c000004180000047800007c080000b2
:10229400040400007838000044440000443800007e
:1022a4007c1400001414000008080000141400003a
:1022b400187c00007c0800000404000008480000aa
:1022c4005454000054200000043f00004440000027
:1022d400203c000040400000207c00001c20000046
:1022e400402000001c3c000040300000403c000046
:1022f4004428000010280000440c00005050000046
:10230400503c000044640000544c000044000000b1
:102314000836000041000000000000007f000000bb
:102324000000000041360000080000000201000027
:10233400020400000200000021310000210000001e
:10234400213200002100000021340000210000009f
:10235400213500002100000021360000210000008a
:102364002137000021000000213800002100000076
:10237400213900002100000021310000302100003b
:102384000021000031310000210000002131000053
:1023940032210000006e00006f2000006163000025
:1023a4006b2d00007265000073650000740000006e
:1023b400546500006d7000003a000000487500008c
:1023c4006d69000064690000747900003a0000003f
:1023d400496e000069740000206300006f6d000006
:1023e400706c0000657400006500000064730000f8
:1023f400610000007a6800006f7000006100000056
:102404003a290000003a00002800000020210000c2
:1024140021200000000000002564000000000000ee
:020000040000fa
:102424000000fa000080200041e82000110098001c
:102434000080200041e8200001087800018020008d
:10244400210090000010a000a0009800018020004e
:10245400210090000000a100a0009800008020004e
:102464008040eb0061409800d009200020108800d3
:1024740000202800301088000822ef008620a900e0
:102484009620a8000080fa00000006000000fa0070
:10249400e3ff07000080fa00000006000200fa00d3
:1024a40000802000e0409000014f78001e4078003a
:1024b4000080fa00000006003600f800809fbe008d
:1024c400829fbe00849fbe00869fbe000000fa006b
:1024d4008620a900411080000008200000806000d0
:1024e4000000e0000c003200e0192900340c070061
:1024f40008e2a9000828ef00704080002000900046
:102504008000eb00010878000e28ef00201a290053
:102514002b0c0700f0003700404080008000eb00e7
:10252400b200200003002000820f5000838f580067
:10253400df003e0000600100e60037000a003700bb
:102544004c00370075003700d4003700a300370073
:10255400b6003700d1003700ba003700d400370086
:102564000700370025003700601a2900140c070003
:102574000622a8002000200040408800d600370032
:10258400a01a29000e0c070041108000000028004a
:10259400008060000000e00008003200008020009d
:1025a400604090008040e800008020006140980076
:1025b40040002000e0000700c70037008040800092
:1025c4008000d100f00f200000806000101088000f
:1025d4008040800061006000004078000004e0005a
:1025e40003003200b000200040408800ba003700e9
:1025f4003000200040408800b7003700e01a29006e
:10260400ef0b0700411080000000280000806000ec
:102614000000e000080032000080200060409000cc
:102624008040e800008020006140980040002000c5
:10263400c1000700a80037000622a80080408000df
:102644004800de00e6006000000f2000010070007a
:1026540080408800804080000000a0008040880006
:1026640010c0b30012e8b7002000200040408800ea
:1026740099003700201b2900d10b070012c8bf00a6
:10268400e14f50000a0032006040800010007800e2
:10269400804088006040800020009000a0408800b6
:1026a400604080002040900016e8b7000100370029
:1026b4001268ef0081408000f00f2000808f5000ee
:1026c40009003600804080004800de00e60060001b
:1026d400000f20000100700010108800a0002000ee
:1026e400404088007c003700804080001010880043
:1026f4008040800061006000004078000004e00039
:10270400030032005000200040408800720037006f
:1027140030002000404088006f003700601b290013
:10272400a70b070041108000000028000080600013
:102734000000e000090032000080200060409000aa
:102744008040e800008020006140980009e2a90070
:1027540050002000780007005f00370016c8bf0053
:102764008080fb008100e900cf08de008140780012
:102774000040e90016e8b7000104e0001000320050
:102784006040800066004000604088000ac8bf00c6
:102794000040e9000ae8b7000ac8bf000004e000ee
:1027a40003003a0020002000630007004a003700bd
:1027b4000622a80020002000404088004600370080
:1027c400a0408000904078008180fb0011108800b8
:1027d4000000e800a04088003f003700a01b29004b
:1027e400770b070041108000000028000080600083
:1027f4000000e000090032000080200060409000ea
:102804008040e800008020006140980040002000e3
:102814004900070009e2a9002f0037000662a8005a
:1028240080002000404088002b003700e01b290076
:10283400630b070080002000404088000662a80067
:1028440025003700301c29005d0b0700a0408000e4
:102854000110800081407800014878000000e80001
:10286400a040880016c8bf000040e90016e8b70081
:1028740016c8bf000004e0000400320006a2a9004c
:1028840060002000404088000200370006a2a80033
:10289400180007000682a8000f003700801c2900da
:1028a400470b070020002000230007000a00370020
:1028b40000802000604090008040e80000802000fc
:1028c40061409800600020001b0007000000000029
:1028d40001003700000000000080fa004f03be0032
:1028e4004f02be004f01be004f00be003600f9008b
:1028f400004006000000fa006040800066004000ce
:10290400604088000ac8bf000040e9000ae8b70038
:102914000ac8bf000004e00003003a0040002000a1
:10292400404088000200370010002000404088002a
:102934000080fa00000006000200fa00000f780090
:102944000642a80070408000200090000000e000d3
:102954000300320070408000200090001e087800c0
:102964000828ef000080fa00000006000800fa00c2
:10297400000f780021479800220798003307980039
:102984000080200020009000610060000000e00052
:102994000a003a00ae0190002e4190009e0078009b
:1029a40060e92000c20007003e01900061e92000b8
:1029b40010c0b30053000700030037003e0090002e
:1029c4008000eb00010878000080fa000000060097
:1029d4000800fa00000f78002147980022079800a9
:1029e4003307980000802000200090006100600000
:1029f4000000e0000a003a00ae0190002e41900071
:102a04009e00780000e92000a90007003e01900024
:102a140001e9200010c0b3003a00070003003700aa
:102a24003e0090008000eb00010878000080fa006e
:102a3400000006000000fa000080fa000000060012
:102a44000800fa00000f7800214798002207980038
:102a540033079800be0190002e019000ae40900014
:102a64001e007800c1ff07000080fa000000060085
:102a74000800fa00000f7800214798002207980008
:102a8400330798000080200020009000610060005f
:102a94000000e0000a003a00ae0190002e419000d0
:102aa4009e007800a0e820005d0007003e01900031
:102ab400a1e8200010c0b300120007000300370093
:102ac4003e0090008000eb00010878000080fa00ce
:102ad400000006000800fa00000f78002147980063
:102ae4002207980033079800be0190002e01900041
:102af400ae4090001e007800ddff07000080fa0061
:102b0400000006000600fa00004f78001107980044
:102b140022079800008020002000900061006000df
:102b24000000e0002e003a002e009000110020006a
:102b34000108780000802000100078009e009000ba
:102b44001100980000802000100078001e487800d2
:102b54000080200010007800ae0090002100980052
:102b64000080200010007800e60040000080200073
:102b7400010878000080200090007800a0e8200080
:102b8400808f500003003a000080200041e82000bc
:102b94000108780001802000210090000010a100ad
:102ba400a000980000802000900090000080200089
:102bb40010007800808f500004003a00018020004b
:102bc400210090000000a000a00098004040800078
:102bd4000000e00005003a008620a800030037004a
:102be4002e0090008000eb00010878000080fa00bd
:102bf400000006000600fa00004f78001107980054
:102c0400220798001e0090002e019000800078009a
:102c14001e407800bbff07000080fa000000060099
:102c24000800fa00000f7800110798004247980046
:102c3400330798003e0090000000400080007800b8
:102c44001e007800010878001e007800100078004b
:102c5400800078000100a0001e00780001087800c0
:102c64001e007800ce409000214098001e0078009d
:102c74009e009000210098000080fa0000000600e9
:102c84000800fa00000f78001107980042479800e6
:102c9400330798001e007800be0190004e4190005a
:102ca4009e009000deff07000080fa00000006008e
:102cb4000800fa00000f78001107980042479800b6
:102cc400330798003e009000000040008000780028
:102cd4001e007800010878001e007800ce409000a5
:102ce400214098001e0078009e009000210098006a
:102cf4000080fa00000006000800fa00000f7800c7
:102d04001107980042479800330798001e00780086
:102d1400be0190004e4190009e009000e4ff070029
:102d24000080fa00000006000000fa000080200085
:102d3400200090000000d100614060000080fb0092
:102d440000f0a7000000ea000000ea004f00de00e7
:102d5400004078000080fa00000006000000fa003d
:102d6400f1ff07000080fa00000006000000fa00ee
:102d74000080200020009000614060000080fb0083
:102d840000f0a7000000ea000000ea004f00de00a7
:102d9400004078000080fa00000006000000fa00fd
:102da400f2ff07000080fa00000006001400fa0099
:102db40070079800010f9800120f98008e08900079
:102dc400310798000000eb002007980066003700e8
:102dd4007e0090004800de0000407800204f9800fc
:102de4007e00900000407800304f98000000eb0017
:102df400000f78000000eb00100798001b0037005c
:102e0400e80047006a0047008101780002042000be
:102e140021c0b300d5fe0700090037009e009000d2
:102e240020032000808f500002003a000040eb0095
:102e3400520037001e0090000000e80010079800c0
:102e44004e009000e10f5000f4ff32004e0090005d
:102e5400e20f500009003200400620009e00780076
:102e6400808f5000070032001e0fe8004e009000d3
:102e74000000e000e2ff3a00030037000000000019
:102e840001003700000000004e009000e20f5000e7
:102e940027003a000000eb00000f78000000eb0070
:102ea400100798001b003700680047008001780075
:102eb4000204200011c0b3003e009000ecfe0700a5
:102ec400090037009e00900020032000808f5000ee
:102ed40002003a000040eb00280037001e0090007a
:102ee4000000e800100798004e009000e10f500029
:102ef400f4ff32004e009000e20f5000090032004f
:102f0400400620009e007800808f500007003200a9
:102f14001e0fe8004e0090000000e000e2ff3a00bf
:102f2400030037000000000001003700000000002b
:102f34004e0090000000e00002003a000040eb0068
:102f44000e0037003e0090000000e80030079800b3
:102f54007e0090000000e800700798002e009000aa
:102f64000000e80020079800ae0090001e089000c2
:102f7400808f500096ff390010c0b3000080fa0023
:102f8400000006000200fa000000eb00000f7800c9
:102f940006a2a900000a200001002000fd09070084
:102fa4000602a8000000000007003700000120000e
:102fb40001002000f70907001e0fe8001e0078003a
:102fc400f40f500005003c003010800061006000e8
:102fd4000000e000f5ff3a000100370000000000a7
:102fe4000002200001002000ea0907000080fa0026
:102ff400000006000200fa000000eb00000f780059
:1030040006a2a900000a200001002000e10907002f
:103014000642a800000000000a003700000120005a
:1030240001002000db0907001e0fe8001e007800e5
:1030340000407800560907001e007800f40f500085
:1030440005003c0030108000640060000000e000d7
:10305400f2ff3a00010037000000000000022000e7
:1030640001002000cb0907000080fa0000000600e0
:103074000200fa000000eb00000f780006a2a9008d
:10308400000a200001002000c20907000622a8004f
:1030940000000000070037000001200001002000ac
:1030a400bc0907001e0fe8001e007800f40f500052
:1030b40005003c0030108000620060000000e00069
:1030c400f5ff3a0001003700000000000002200074
:1030d40001002000af0907000080fa00000006008c
:1030e4000200fa000000eb00000f78000622a8009e
:1030f400000000000700370000012000010020004c
:10310400a40907001e0fe8001e007800f40f500009
:1031140005003c0030108000620060000000e00008
:10312400f5ff3a0001003700000000000002200013
:1031340001002000970907000080fa000000060043
:103144000200fa000000eb00000f78000642a8001d
:103154000700370000022000010020008d0907004d
:103164001e0fe8001e007800f40f500005003c001c
:1031740030108000640060000000e000f5ff3a00b9
:1031840001003700000000000662a9008620a900a3
:1031940008e2a9000942a900000a20000100200059
:1031a4007c0907000080fa00000006000400fa0011
:1031b40010079800000000004010800061006000cb
:1031c4000000e000fcff3a008620a9001e009000e9
:1031d400101088000000eb00000f78000900370091
:1031e4004110800000002400008060000000e00026
:1031f40009003200000120000100200065090700d9
:103204001e0fe800301f20009e007800808f5000c1
:10321400f3ff34000100370000000000401f2000cd
:103224009e007800808f500002003a0010c0b30066
:103234000e0037004110800000002800008060006c
:103244000000e00005003200d01c2900dc08070063
:10325400bbff070010c0b3000400370000022000c9
:10326400010020004b0907000040eb000080fa0039
:10327400000006000400fa000000eb00000f7800d4
:103284000040eb00204798000662a80005003700c4
:103294001e0fe800007d20009e007800808f500003
:1032a40005003c0040108000620060000000e00067
:1032b400f7ff32000100370000000000001080001a
:1032c400204798002e4090000080fa00000006007d
:1032d4000400fa000000eb00000f78000040eb004f
:1032e400204798000662a800050037001e0fe8007a
:1032f400007d20009e007800808f500005003c0077
:1033040040108000620060000000e000f7ff32001f
:1033140001003700000000000000eb00000f7800ff
:1033240000108000204798000002200001002000c7
:1033340018090700000220000100200015090700f9
:103344002e4090000080fa00000006000000fa0001
:103354000200370040c6b3008d080700301080001b
:103364007f0060000000e000faff3a000080fa00ed
:10337400000006000000fa0006a2a90000000000f8
:103384000662a9000642a9000622a9000602a900b5
:103394000682a8000200370010c4b3007c080700ae
:1033a40030108000700060000000e000faff3a0076
:1033b4000080fa00000006000000fa0006a2a8003f
:1033c400000000000662a9000642a9000622a90026
:1033d4000602a9000682a80002003700e0c4b30078
:1033e4006b08070030108000700060000000e000ef
:1033f400faff3a000080fa00000006000000fa001c
:103404001008200069ff0700300e200067ff070046
:103414000080fa00000006000400fa00204798002b
:103424000000000000128000620060000000e00064
:10343400fcff3a008540a9008520a90040c2a900ec
:103444002e4090000080fb00401288000000000025
:1034540000128000610060000000e000fcff320008
:1034640040128000004f78001e4078000080fa006f
:10347400000006000400fa00204798000000000045
:1034840000138000620060000000e000fcff3a00ce
:103494008820a9008800a90060c2a9002e409000dd
:1034a4000080fb004013880000000000001380002f
:1034b400610060000000e000fcff32004013800067
:1034c400004f78001e4078000080fa0000000600db
:1034d4000000fa00da02a90060c0b300e5ff0700ab
:1034e400da02a8000080fa00000006000000fa00da
:1034f400da02a90040c0b300deff0700da02a80028
:103504000080fa00000006000200fa00da02a900b6
:1035140050c0b300d7ff070000c0eb00d5ff070081
:10352400004f7800da02a8001e4078000080fa00fc
:10353400000006000200fa00004f780000000000be
:10354400f1ff07000080fb0061006000004078008c
:103554000004e000faff3a00ddff0700da02a900e8
:1035640010c0b300c3ff07001e407800c1ff07006e
:10357400da02a8000080fa00000006000600fa0043
:10358400881f7800008fbe00220798001e01be002d
:10359400f0ff2f0031002000800f5100818f59006f
:1035a40022003e002e0090000000e00021003200c6
:1035b40000000000d4ff07000080fb0061006000f1
:1035c400004078000004e000faff3a00da02a900a3
:1035d40030c0b300a7ff07002e409000a5ff0700ee
:1035e4001e409000a3ff07001e407800a1ff0700c3
:1035f4001828ef0007003700c840800000c0eb0027
:103604009cff070081c4200080707c000800e80053
:10361400c0408800c14080002e009000808f500080
:10362400f5ff3900da02a8000300370000000000ab
:1036340001003700000000004f0478000080fa0009
:10364400000006000600fa00008fbe002207980062
:103654001e01be00f0ff2f0031002000800f51003a
:10366400818f590062003e002e0090000000e000af
:10367400610032001e4078000080fb000041880099
:10368400014180002e00900000804000004188002d
:1036940001418000f00f2000808f500008003600a8
:1036a400004180000010b1002041880020418000ca
:1036b400ae009000008050001041880004003700e4
:1036c400ae009000114188002428ef0000000000a3
:1036d4008dff07000080fb0061006000004078005f
:1036e4000004e000faff3a0079ff0700da02a900bb
:1036f40020c0b3005fff07002e4090005dff07006d
:103704001e4090005bff07001e40780059ff070031
:103714001e28ef0007003700f040800081d420000d
:103724006140780053ff0700f04080000000e8008b
:10373400f0408800f140800010418000808f5000ec
:10374400f5ff3900da02a800204180000000e00003
:103754002a003200000000006bff07000080fb001d
:1037640061006000004078000004e000faff3a00c5
:1037740057ff07001e01be00104180008000eb00cf
:103784000200400083804800008fbe00da02a900d6
:1037940020c0b30037ff07002e40900035ff07001c
:1037a4001e40900033ff07001e40780031ff0700e1
:1037b40010418000f040880007003700f04080008e
:1037c40081d42000614078002aff0700f040800087
:1037d4000000e800f0408800f14080002e009000d6
:1037e400808f5000f5ff3900da02a800030037008b
:1037f4000000000001003700000000000080fa0013
:10380400000006000800fa00008fbe00220798009e
:1038140033079800000000003bff07000080fb0016
:1038240061006000004078000004e000faff3a0004
:1038340027ff0700da02a90020c0b3000dff07002c
:103844002e4090000bff07001e40900009ff070068
:103854001e40780007ff07004e40900005ff070058
:103864005e40900003ff07006e40900001ff0700d8
:103874007e409000fffe0700da02a8000080fa00f4
:10388400000006000000fa00000000001eff070010
:103894000080fb0061006000004078000004e0004c
:1038a400faff3a000aff0700da02a90020c0b300b9
:1038b400f0fe07000040eb00eefe07000040eb00c6
:1038c400ecfe07000040eb00eafe07001e28ef00b4
:1038d40003003700f04080000000e800f04088005a
:1038e400f1408000b0072000808f5000f9ff3600bf
:1038f400da02a8000080fa00000006000000fa00c6
:103904000000000000ff07000080fb006100600071
:10391400004078000004e000faff3a00da02a9004f
:1039240030c0b300d3fe07000040eb00d1fe070017
:103934000040eb00cffe070040c0b300cdfe0700ff
:1039440040002000f040880000000000f1408000aa
:10395400b0072000808f5000fcff3600da02a80078
:103964000080fa00000006000400fa000040200075
:1039740001002000008fbe0021003700000000007d
:10398400e1fe07000080fb00610060000040780059
:103994000004e000faff3a00cdfe0700da02a900b5
:1039a40020c0b300b3fe07002e409000b1fe070014
:1039b4001e409000affe07001e407800adfe0700d9
:1039c4001e28ef00050037000040eb00a9fe0700a9
:1039d400f04080000000e800f0408800f1408000e2
:1039e400f00f2000808f5000f7ff3600da02a800a5
:1039f4001e00be000010b0000180b000008fbe00a9
:103a04001e01be00f0ff2f0031002000800f510086
:103a1400818f5900d9ff36000080fa0000000600ab
:103a24000600fa00200798006000b800008fbe006e
:103a34002200370000000000b3fe07000080fb00f6
:103a440061006000004078000004e000faff3a00e2
:103a54009ffe0700da02a90020c0b30085fe07001c
:103a64002e40900083fe07001e40900081fe070058
:103a74001e4078007ffe07001e28ef000600370076
:103a84002e009000004078007afe0700f04080008d
:103a94000000e800f0408800f1408000f00f2000b2
:103aa400808f5000f6ff3600da02a8001e00be0028
:103ab4000010b0000180b000008fbe001e01be00e7
:103ac400f0ff2f0031002000800f5100818f59003a
:103ad400d8ff36000080fa00000006000600fa0055
:103ae4000000eb00ceff07006000b800100798004c
:103af400210798000000000083fe07000080fb00ff
:103b040061006000004078000004e000faff3a0021
:103b1400da02a90030c0b30056fe07000040eb00f3
:103b240054fe07000040eb0052fe07000040eb008b
:103b340050fe0700801f2900a1060700120037006d
:103b440000c0eb004bfe07000080fb00000f780074
:103b54001e0078000000e00005003200c01f2900ac
:103b640097060700da02a8000000eb0042003700c5
:103b74001e009000ae00900061004000e08048000c
:103b840010079800210798001e019000ae019000d4
:103b9400f0ff2f0031002000800f5100818f590069
:103ba400e7ff3600da02a800202029008406070077
:103bb400f00f20009aff07006000b800100798007b
:103bc40021079800000000004ffe07000080fb0062
:103bd40061006000004078000004e000faff3a0051
:103be400da02a90030c0b30022fe07000040eb0057
:103bf40020fe07000040eb001efe07000040eb0023
:103c04001cfe07001100370000c0eb0019fe07007e
:103c14001ce8b7001cc8bf00e14f4000050032009b
:103c2400da02a80050202900650607000000eb0016
:103c3400110037001e009000ae00900061004000ab
:103c4400e080480010079800210798001e019000aa
:103c5400ae019000f0ff2f0031002000800f5100d2
:103c6400818f5900e8ff3600da02a80020202900dd
:103c740053060700100020000080fa000000060030
:103c84000600fa001007980041479800cdc2a90029
:103c9400cde2a9000040eb00004f78000700370098
:103ca4001e00900010407800dbfd07001e4fe80066
:103cb4001e0090000000e800100798004e4090009d
:103cc4009e40780080cf5000f5ff390000000000ce
:103cd40000000000cde2a8000080fa000000060009
:103ce4000600fa001007980021079800cdc2a8002a
:103cf400cde2a9000000eb00000f780007003700b8
:103d04001e00900010407800c3fd07001e0fe8005d
:103d14001e0090000000e800100798002e0090009c
:103d24009e007800808f5000f5ff390000000000ed
:103d340000000000cde2a8000080fa0000000600a8
:103d44000400fa002047980010c8b300004f780020
:103d5400ae4090001147980021c0b3000e007800d7
:103d6400c7ff07000080fa00000006000400fa0004
:103d740020479800ae40900040cab30000c07000d5
:103d8400004f780011c0b3000e007800bcff07009c
:103d94000080fa00000006000400fa0020479800a2
:103da400ae40900060cab30000c07000004f7800bd
:103db40011c0b3000e007800b1ff07000080fa00c4
:103dc400000006000400fa0020479800ae4090006e
:103dd400e0cab30000c07000004f780011c0b30007
:103de4000e007800a6ff07000080fa00000006001d
:103df4000c00fa00004f9800114f9800224f9800d1
:103e0400334f98008e48900060c2b30000c0700029
:103e1400004f78000040eb00104798009e48900047
:103e240021479800ae48900031479800be48900062
:103e3400414798000040eb005047980000c0eb0059
:103e44006047980071c0b3000e0078008cff070033
:103e54000080fa00000006000c00fa006047980099
:103e640071479800024f9800134f9800244f980010
:103e7400ee40900090c2b30000c07000004f780084
:103e84000040eb0010479800fe4090002147980046
:103e94008e489000314798009e4890004147980012
:103ea400ae4890005147980071c0b3000e007800ee
:103eb40073ff07000080fa00000006000200fa0009
:103ec400f0c2b300004f780011c0b3000e007800b8
:103ed4006bff07000080fa00000006000200fa00f1
:103ee400e0c2b300004f780011c0b3000e007800a8
:103ef40063ff07000080fa00000006000600fa00d5
:103f0400404798005147980030cab300004f7800ea
:103f1400ce40900011479800de4090002147980061
:103f240031c0b3000e00780055ff07000080fa008e
:103f3400000006000400fa00204798002e4090007c
:103f44006f406000004f780011c0b3000e0078008d
:103f54004bff07000080fa00000006000400fa008e
:103f6400204798002e4090006f4060000044a0005d
:103f7400004f780011c0b3000e00780040ff070026
:103f84000080fa00000006000400fa0020479800b0
:103f94002e4090006240600001c2b300014f7800df
:103fa4001047980021c0b3000e00780034ff0700ca
:103fb4000080fa00000006000600fa00404798005e
:103fc400514798004e409000804078000174a10051
:103fd4005e4090000074a10012c2b300024f78004a
:103fe400114798002047980031c0b3000e007800b4
:103ff40023ff07000080fa00000006000600fa0014
:1040040040479800514798004e409000e7406000b8
:104014005e4090006740600022c2b300024f780007
:10402400114798002047980031c0b3000e00780073
:1040340013ff07000080fa00000006000400fa00e5
:1040440020479800ae40900000cbb30000c0700041
:10405400004f780011c0b3000e00780008ff07007d
:104064000080fa00000006000400fa0020479800cf
:10407400ae40900000c4b30000c07000004f780050
:1040840011c0b3000e007800fdfe07000080fa00a6
:10409400000006000400fa0020479800ae4090009b
:1040a40000cab30000c07000004f780011c0b30014
:1040b4000e007800f2fe07000080fa0000000600ff
:1040c4000400fa00204798002e409000f043b2000c
:1040d40081cab300014f78001047980021c0b30093
:1040e4000e007800e6fe07000080fa0000000600db
:1040f4000400fa0020479800ae40900000ccb300c2
:1041040000c07000004f780011c0b3000e007800aa
:10411400dbfe07000080fa00000006000400fa003d
:10412400204798002e409000f043b20031cdb300f8
:10413400014f78001047980021c0b3000e007800aa
:10414400cffe07000080fa00000006000400fa0019
:1041540020479800a0cdb300004f7800ae409000f7
:104164001147980021c0b3000e007800c4fe070078
:104174000080fa00000006000400fa0020479800be
:10418400314798002e4090000080fb004400dd0081
:10419400804078003e40900000c0700051cdb300d4
:1041a400014f78001047980021c0b3000e0078003a
:1041b400b3fe07000080fa00000006000400fa00c5
:1041c4002047980090cdb300004f7800ae40900097
:1041d4001147980021c0b3000e007800a8fe070024
:1041e4000080fa00000006000400fa00204798004e
:1041f400b0cdb300004f7800ae4090001147980056
:1042040021c0b3000e0078009dfe07000080fa0074
:10421400000006000200fa0030ceb300004f780020
:1042240011c0b3000e00780095fe07000080fa006c
:10423400000006000400fa0020479800d0c8b3002c
:10424400004f7800ae4090001147980021c0b300a1
:104254000e0078008afe07000080fa0000000600c5
:104264000000fa00c00a220000128800e0132000b7
:10427400101288004422ef008540a9004005800008
:104284000080a1000090a10000a0a10040058800ca
:1042940041e2a8000080fa00000006000000fa00d5
:1042a40023002000610420007205200024742000f3
:1042b400014a7800024a7800034a78005005200039
:1042c400303b8800a00a2000303b880027a6a800c5
:1042d40027e6a900200007000004a2000004e00073
:1042e4000c003200303180000080a0000090a0005b
:1042f4003031880060012000203188002030200007
:104304002031880090302000203188007014230070
:10431400203188002746a8002826ef0027e6a800b9
:1043240027a6a9000080fa00000006000000fa0099
:10433400daff07000080fa00000006000200fa001d
:10434400004f78001e4178004184200082487800a4
:104354000080fa00000006000000fa0044c8bf0014
:104364000080fa00000006000400fa00100798001c
:104374003231800000002100000061000000e000f4
:10438400020032000040eb004c00370051052000d1
:10439400313b8800a10a2000313b880027a6a800f1
:1043a400303180000080a0000090a00030318800ef
:1043b40021318000010f78001e0078000040780051
:1043c400130107008080fb001e009000510098003c
:1043d400303180000080a1000090a00030318800be
:1043e40021318000010f78001e0078004800de00b3
:1043f40000407800060107008080fb001e0090004a
:10440400410098001e007800004078000001070079
:104414008080fb001e009000310098003031800045
:104424000080a0000090a10030318800213180007c
:10443400010f78001e0078004800de00004078007c
:10444400f30007008080fb001e00900061009800cc
:104454001e00780000407800ed0007008080fb001b
:104464001e00900021009800303180000080a100df
:104474000090a1003031880021318000010f7800c4
:104484001e0078004800de0000407800e0000700cd
:104494008080fb001e009000110098001e00780030
:1044a40000407800da0007008080fb001e009000c6
:1044b4000108780027a6a90010c0b3000080fa0004
:1044c400000006000200fa00000f78001e007800c9
:1044d400a5ff07000080fa00000006000200fa00b1
:1044e400881f7800000f780051052000313b8800b8
:1044f400a10a2000313b880027a6a80027e6a900ce
:10450400303180000080a0000090a000303188008d
:104514001e0078005000900000407800a4000700be
:104524000080fb00203188001e00780040009000cd
:10453400004078009e0007000080fb004804dd0076
:104544001e007800300090000040780098000700ba
:104554000080fb0008007000203188001e007800f5
:104564006000900000407800910007000080fb008c
:104574004804dd001e007800200090000040780010
:104584008b0007000080fb000800700020318800c9
:104594001e0078001000900000407800840007009e
:1045a4000080fb004804dd001e0078001000780045
:1045b400004078007e0007000080fb0008007000c7
:1045c4002031880027e6a80027a6a9004f04780018
:1045d4000080fa00000006000400fa0010079800aa
:1045e4003231800000002100000061000000e00082
:1045f400020032000040eb0040003700510520006b
:10460400313b8800a10a2000313b880027a6a8007e
:10461400303180000080a0000090a000303188007c
:1046240021318000010f78009e0078001e00900068
:1046340051009800303180000080a1000090a0005b
:104644003031880021318000010f78001e0078008d
:104654004800de00800078001e00900041009800b1
:104664009e007800f00f2000808060001e00900003
:1046740031009800303180000080a0000090a1003b
:104684003031880021318000010f78001e0078004d
:104694004800de00800078001e0090006100980051
:1046a4009e007800f00f2000808060001e009000c3
:1046b40021009800303180000080a1000090a1000a
:1046c4003031880021318000010f78001e0078000d
:1046d4004800de00800078001e0090001100980061
:1046e4009e007800f00f2000808060001e00900083
:1046f4000108780027a6a90010c0b3000080fa00c2
:10470400000006000200fa00000f780051052000a6
:10471400313b8800a10a2000313b880027a6a8006d
:1047240027e6a9008bc0a9009bc0a90030318000f6
:104734000080a0000090a000303188001e007800a6
:1047440050009000203188001e0078004000900046
:10475400c800dd001e0078003000900001007000e9
:10476400203188001e00780060009000c800dd0041
:104774001e007800200090000100700020318800a5
:104784001e00780010009000c800dd001e007800b4
:1047940010007800010070002031880027e6a8008e
:1047a40027a6a9009bc0a8000080fa00000006000c
:1047b4000400fa00204798002e4090008080fb00ff
:1047c400a000200000017800110009008280d800b8
:1047d40080407800400020000008dd00004f780091
:1047e4002e4090008080fb00a00020000001780093
:1047f400110009008280d8008000fd00004078008c
:104804001e4f70001e4078000080fa000000060071
:104814000400fa00204798002e4090000080fb001e
:104824004400de00004078006a00b900000078000f
:10483400804078002e4090006f40600000cf400020
:104844001e4078000080fa00000006000200fa0012
:10485400500480004e00de00614060000080fb00d8
:1048640000f0a7000000ea000000ea004f00de00ac
:10487400004f780051048000000024000080600094
:104884000000e000010032008bc0a9001e40780047
:104894000080fa00000006000400fa0010079800e7
:1048a4001e0090008000eb00fcef070022852b0027
:1048b400f33224004ef007000200200003782400a5
:1048c40099ef070062662600b323240038ef07003f
:1048d400d7ef0700000f78009e0078009141880010
:1048e4001e0078000080fa00000006000600fa00ae
:1048f400200798002e0090008000eb00008fbe007f
:104904009e009000d00720000088b90000017800c4
:104914001e0078006000b90000007800000141002a
:104924009e007800d00720000008b8000101410073
:10493400820078004008de0001002000a2ff2f0062
:10494400f3ff2f00021f4000039748001e00780069
:104954000080fa00000006000000fa0089f9070050
:104964000008200011fa0700000e20000ffa0700cb
:10497400bff90700100820000cfa070073fa0700bb
:1049840053fa070026e8b7007afa07006ffa07001f
:1049940078fa07004efa070027e8b7006bfa070019
:1049a40085fa070093f9070026c8bf002ae8b70074
:1049b40027c8bf002be8b7000080fa0000000600fb
:1049c4000000fa006ff9070000082000f7f907005b
:1049d400300e2000f5f90700a5f9070010082000a3
:1049e400f2f9070059fa070039fa070026e8b70078
:1049f40060fa070055fa07005efa070034fa070068
:104a040027e8b70051fa07006bfa070079f90700a5
:104a140026c8bf002ae8b70027c8bf002be8b700a4
:104a24000080fa00000006000000fa0055f90700b3
:104a340000082000ddf90700500e2000dbf9070014
:104a44008bf9070010082000d8f907003ffa070087
:104a54001ffa070028e8b70046fa07003bfa0700e8
:104a640044fa07001afa070029e8b70037fa0700e2
:104a740051fa07005ff9070028c8bf002ce8b70007
:104a840029c8bf002de8b7000080fa000000060026
:104a94001400fa00e4ff07006041800093ff070060
:104aa40080418800acff0700504180007aff070076
:104ab4007041880070418000801f7800e020290048
:104ac400801f78000e00780040f00700e48757004c
:104ad4000e01780061c0b300e0c1b3007a000700a2
:104ae400814180006a004700811f7800e12029008d
:104af400811f780035f00700e48757006a004700fb
:104b04000001780081c0b300d0c2b3006e0007007a
:104b1400460007000e007800a90207000080fa0092
:104b2400000006000000fa0016f907000008200043
:104b34009ef90700400820009cf90700800b200024
:104b44009af907000ff907001008200097f90700e9
:104b54000080fa00000006000000fa00c9e2a90083
:104b6400c8c2a900c9c2a900bdfd07000080fa009f
:104b7400000006000000fa00f7ff0700020007002b
:104b84000080fa00000006000000fa00ccc2a80071
:104b940000e8230001002000fe020700ccc2a900a7
:104ba4000010270021002000fa020700ccc2a80050
:104bb4000040eb0083fc0700f0c3b30040fd070096
:104bc4000040eb0055fd07000040eb0026fd070008
:104bd40010c0b3002ffd070080c0b30044fd0700e0
:104be40020c1b30059fd0700f0c7b30054fc07000f
:104bf4000040eb005dfc07000040eb0066fc070092
:104c04008040eb0080c0b3005bfd070040c1b300ef
:104c140088fd07000040eb00dbfc070010c0b30078
:104c240068fc07000080fa00000006000000fa009b
:104c3400f1c7b3000040eb00dffc070071c0b30014
:104c44000040eb00edfc07000140200080842000c0
:104c540023fc07000080fa00000006000000fa00b0
:104c6400024020008000eb0080842000c3ef070096
:104c74000080fa00000006000400fa00004f7800eb
:104c840011479800224798001e409000e84f5000ba
:104c94000a003e001e4090000040e90010479800c2
:104ca4001e4fe9009e4190001e417800ae409000e6
:104cb400808420004b000700010037000000000042
:104cc4000080fa00000006000600fa002047980061
:104cd40031479800220798002e009000aeef07009d
:104ce400004f78009e80fb002e4090000080fb0067
:104cf40000804000e500400000082000808f500044
:104d04000d003e003e4090000040e900304798000e
:104d14002e4090000040e900204798001e42780091
:104d2400be4190002e419000ae009000808420008f
:104d34005b00070001003700000000000080fa005b
:104d4400000006000200fa00004f780011479800a6
:104d54000080fa00000006000200fa00004f78000c
:104d6400114798001e4078000004e000140032004f
:104d740000c8b3009e40780080cf500012003e006f
:104d84001e4090000004e000110032009e4090009c
:104d940000c4b30080cf50000f003e001e409000be
:104da4000040e900104798001e4fe9001e419000a2
:104db4009e4078008084200020020700070037000e
:104dc4000000000005003700000000000300370069
:104dd4000000000001003700000000000080fa001d
:104de400000006000600fa00000f78002147980032
:104df4003247980043479800be409000b0c7b300c4
:104e040080cf500023003e002e4090004100070058
:104e14000004e0000e0032001042800065004000f3
:104e240010428800114280000004200000806000cd
:104e3400104288002e409000ce4190003e419000e8
:104e4400804078001e0078004100070012003700ff
:104e54002e409000ea4f50000f0032002e40900088
:104e6400e94f50000c003a00ce4190003e419000c2
:104e740001c2b3001e007800daff0700ce419000a3
:104e84003e41900001c2b3001e007800d5ff070028
:104e940001003700000000000080fa000000060056
:104ea4000a00fa001007980021079800624798004a
:104eb40073479800044f98000040eb00004f7800bf
:104ec4000e0037002e00900010407800fe41900044
:104ed4006e419000804078001e009000c1ff0700e2
:104ee4001e00900065004000100798001e4fe80067
:104ef4002e0090000000e800200798000e48900063
:104f04009e40780080cf5000eeff39000080fa0008
:104f1400000006000200fa00004f78001e407800ee
:104f2400ff4f500006003600e0c7b3009e407800f3
:104f340080cf500002003e00100020000100370026
:104f44000000eb00004078000080fa00000006003a
:104f54000a00fa00200798006147980072479800f9
:104f6400034f98007e4090008080fb000e48900024
:104f74000080fb004700dd0000804000ae00900090
:104f8400008f4000ee40900000ceb30000c040000f
:104f9400604798000040eb00204798000f0037005e
:104fa4006e4090000080fb00ae4090000181fb0049
:104fb4006500b900000078000200400021fc2800d0
:104fc400e14078001e007800014878002e409000ef
:104fd4000040e800204798001e0fe8002e40900093
:104fe400e44f5000eeff36000080fa000000060097
:104ff4000000fa000600fc00217420006204200076
:1050040073052000824878008348780042c7a900cd
:10501400c136800000fc2f00008060003000b30027
:10502400c03688002135800000fc2f00008060001d
:105034004001b300203588003136800000fc2f0089
:10504400008060005000b3003036880031358000a5
:1050540000fc2f00008060007000b3003035880031
:10506400a1368000f00f2c008080600000c0210079
:1050740001007000a036880011358000f00f2c006c
:105084008080600000a021000100700010358800bd
:105094004135800000fc2f00008060001001b30047
:1050a400403588005136800000fc2f0000806000ed
:1050b4007000b3005036880081368000f00f2c0059
:1050c400808060000080200001007000803688002d
:1050d4006135800000fc2f00008060000020a000eb
:1050e400603588001136800000fc2f0000806000cd
:1050f400a000b3001036880011368000f00f2c0099
:105104008080600000b0200001007000103688002c
:105114000600fc00217420006204200073052000b6
:10512400824878008348780042c7a800c822ef006c
:10513400ca22ef00e224ef0000002200801688005b
:10514400000022009016880020012000c01688006c
:10515400d922a800200b2000d0168800e624ef00f6
:10516400e022ef00e222ef00e824ef00e822ef0063
:10517400ea22ef00f022ef00f222ef00ec24ef002d
:105184000080fa00000006000000fa000500fc00a0
:1051940057052000373b8800a80a2000383b8800c8
:1051a40027a6a80000000000000000000080fa000c
:1051b400000006000000fa009400a9008400a90081
:1051c4009680a9008680a90005e1a9008460a90051
:1051d40011e1a90084e0a90041e3a90085a0a90088
:1051e4000080fa00000006000000fa00e862a9004e
:1051f400ea62a90000202e0041002000650107009a
:10520400ea62a800001e20000100200061010700de
:10521400e862a8000080fa00000006000000fa001e
:105224003468ef000032200001002000590107001b
:1052340050178000680060000000e0000c003a0095
:105244000050200001002000520107005017800088
:10525400680060000000e0000500320010c0b300e8
:1052640034e8b700002820000100200049010700ad
:105274000080fa00000006000200fa000040eb0083
:1052840010479800240037000000000050178000e9
:10529400680060000000e000fcff3200001e2000f7
:1052a400010020003b0107005017800068006000e7
:1052b4000000e00009003a001e4090000000fb00de
:1052c40067001000110020000008dd000040780095
:1052d40000c0ea001e4f60000c0037001e40900022
:1052e4000000fb0067001000110020000008dd0032
:1052f400004078001e4f700000000000501780002e
:10530400680060000000e000fcff3a001e409000ce
:105314000040e800104798001e409000e74f5000fe
:10532400d9ff34001e4078000080fa000000060017
:105334000200fa000040eb00004f7800b2000700c2
:10534400004f78001e407800910007000080fa00aa
:10535400000006000600fa004028ef00201021009b
:10536400103a88004427ef004827ef00013a8000f4
:105374000010210001007000003a88001cff0700a3
:10538400c6fb070026f40700f40007006005800050
:105394000040a0000050a1000060a100600588004a
:1053a400600580000000a0000010a1000020a10002
:1053b40060058800effd070028fe0700a21d2900f4
:1053c40061c0b30010c0b3003ffe0700021e2900f5
:1053d40081c0b30010c0b3003bfe070013fe0700fa
:1053e40000402200410f2000ea00070030032000a3
:1053f4005b00070020c6b30065000700a01e29005b
:105404006f000700c00a220000138800d013200098
:10541400101388006422ef008820a900a0058000f2
:105424000040a1000050a1000060a100a005880078
:105434006302a90062c2a80062a2a80061e2a800f7
:1054440020c4b3005200070010c4b300500007008a
:1054540000a0260081012000ce000700f8ff3700dd
:020000040000fa
:105464009c0e0000120000008000000040080000b4
:105474000200000080000000480800000004000052
:1054840080000000420800000200000080000000cc
:10549400480c000000020000800000001808000012
:1054a4000e0000008000000044080000020000001c
:1054b40080000000340800000c00000080000000a0
:1054c400460800000200000080000000840e000076
:1054d4001800000080000000000800001800000010
:1054e40080000000260800000e000000800000007c
:1054f4006a0e00001a00000082000000686a6c0056
:10550400747a4c000000010000020000040008004e
:1055140000100000000020002b2d230030000000ac
:10552400480e0000220000008200000030313200ea
:10553400333435003637380039414200434445009e
:105544004600300031323300343536003738390004
:1055540061626300646566000000000000000000f2
:020000040000fa
:105564000200fa00000f7800d8a2a8001e007800fc
:105574004011880000002800001188000040280025
:10558400101188008560a9000080fa000000060060
:105594000200fa00004f78000000000011118000a2
:1055a40000202000008060000000e000fbff3a00c3
:1055b4001e00fb00201188000080fa000000060095
:1055c4000400fa00100798000040eb00004f780038
:1055d400060037001e00900010407800ecff070022
:1055e4001e0090000000e800100798001e009000c4
:1055f400104f78001e4078000004e000f5ff3a00e8
:105604000080fa00000006000200fa00000000001a
:105614002104800000802000008060000000e00081
:10562400fbff320030118000004f78008560a90034
:105634001e4078000080fa00000006000400fa0012
:10564400000f780021479800324798002e409000c0
:105654008080fb003e4090000080fb004300de00a1
:10566400004078000080fb004700dd00008040001f
:105674001e004000ae4090000181fb00be4090003f
:105684008180fb00c308de00814078008180fb003c
:10569400c708dd00810041009e80400091407800f1
:1056a40001417800be4090008180fb00e7806000eb
:1056b400130020008118dd008140780081407100d2
:1056c400014878000080fa00000006000000fa009b
:1056d4000080fa00000006003600f800809fbe003b
:1056e400829fbe00849fbe00869fbe003200f800e9
:1056f4003400f80010002000a001880000202000e1
:10570400900188000000fa008460a9003042800003
:10571400e90f50000400340080202900a8ff07008e
:105724004628ef0004003700304280000000e80003
:10573400304288000040fe000080fa003400f90086
:105744003200f9004f03be004f02be004f01be00fd
:105754004f00be003600f900004006000000fa00c9
:1057640000002800100888002005800000c0a00068
:1057740000d0a10000e0a00020058800200028003f
:10578400200888008460a9009460a8000080fa00c2
:04579400000006000b
:020000040000fa
:10579800f03fb1000180b10006003500ee030900ba
:1057a80000000000403fb1000180b100fbff3d0058
:1057b8001000b000203fb000020035000080090052
:0857c8000000000000000600d3
:020000040000fa
:020000040002f8
:04aff00000fe00005f
:020000040000fa
:020000040002f8
:04aff4005287000080
:020000040000fa
:020000040002f8
:04aff8008f61000065
:020000040000fa
:020000040002f8
:04affc008039000098
:00000001FF
